:060000000C941E010C949B
:1000060000000C9400000C9462030C9400000C9405
:1000160000000C9400000C9400000C9400000C945A
:1000260000000C9400000C9472030C9400000C94D5
:1000360000000C9400000C9400000C9400000C943A
:1000460000000C9400000C94F5080C940000102796
:10005600E80364000A00010000100001100001001E
:10006600000064000000000000000000253032643B
:100076003A253032643A253032640054696D653A67
:100086002000696E7465727275707420320A0D00F4
:100096005B4442475D204272616B65206170706C03
:1000A6006965642E0D0A005B4442475D2042726119
:1000B6006B652072656C65617365642E0D0A00536D
:1000C600797374656D20496E69742E2E2E0D0A00A3
:1000D60054637269743D37304300204D6568727A07
:1000E6006164476F6C61626900415A2044696769BF
:1000F60074616C322070726A0020557365207468D2
:100106006520627574746F6E7300746F206E61760D
:100116006967617465206D656E7500537065656409
:100126003D25642C205374656572696E673D2564B0
:100136002C2054656D703D25642C204675656C3DFC
:1001460025642C20646972656374696F6E466C6100
:10015600673D2564202C204272616B653D25640D48
:100166000A005B4442475D204B657931203D3E20C5
:100176006D656E753D25640D0A005B4442475D2042
:100186004B657932203D3E206D656E753D25640DCB
:100196000A005B4442475D204B657933203D3E2093
:1001A600686561646C69676874735F6F6E3D25642A
:1001B6000D0A005B4442475D204B657934203D3E85
:1001C60020686F6E6B0D0A0073706565643A2020B7
:1001D600202564006D656E753D2020202564007421
:1001E600656D703A2020202564006675656C3A209E
:1001F60020202564000007000100020066000A00B6
:100206000400680007006002810011006702C50053
:100216000A007802D6000F008202E0001000910268
:10022600EF001100A102FF001100B202100101004F
:10023600C502FC010000F894EE27ECBBF1E0FBBF21
:10024600EBBFE5BF8DE0A2E0BB27ED938A95E9F70A
:1002560080E098E0A0E6ED930197E9F7EEEFF1E094
:1002660085919591009761F0A591B59105901590AE
:10027600BF01F00105900D920197E1F7FB01F0CF68
:10028600EFE5EDBFE8E0EEBFC0E6D2E00C94FC047B
:10029600BA93AA931A93E9811E2F1860EFE3EA93A3
:1002A600EDB7FEB7FA93EA931F930E94730A1F9164
:1002B6001881239608950E947C0AEC81FD81E07FD7
:1002C600F070AA81BB81EA2BFB2B8F01D801E0DFFE
:1002D600F801E460DF01DCDF83E08A95F1F7F801DD
:1002E600EB7FDF01D5DF85E88A95F1F71981088173
:1002F6001CC1BA93AA93EA81FB810E94810AEA8112
:10030600FB810E94FD0B0E94810A71C30E94890A2B
:10031600A0E0B0E0EEDFD1C10E94890AA1E0B0E022
:10032600E8DFCBC1A4E10E94900AA5E00E94900AF2
:100336000E949B0AE0E3F0E00E94A00AE0E2F0E0FF
:100346000E94A00AA8E2B0E0E1DFA8E0B0E0DEDFAC
:100356000E94A70AA2E0B0E00E94D90BA6E0B0E096
:10036600D5DFACE0B0E0D2DF0895BA93AA93A881B6
:10037600B981EC91E03039F0ED91A883B983F0E0D2
:10038600DF01CADFF4CF99C10E947C0AEA81FB81B2
:10039600309729F4EC81FD8130968F010CC0E13055
:1003A600A0E0FA0731F4EC81FD81E05CFF4F8F019C
:1003B60002C000E010E0F801E068DF01A7DF198164
:1003C6000881B3C0E5E1F3E0FA93EA93E2E7F0E0EF
:1003D600FA93EA93E091CA02F091CB020E94AB0A2B
:1003E600E091C802F091C9020E94AB0AE091C602F0
:1003F600F091C7020E94AB0A8CE00E941408609636
:100406000E94B00AB0E0C0DFA0E6B2E0AEDFA5E130
:10041600B3E0ABDF0895AA9323971A93AC81A33078
:1004260010F0E0E025C0EF81E98310E0EC811E17B3
:1004360090F4E12FF0E03196DE011196EA0FFB1FF2
:100446000F01AD81BE81EE27A10FBE1FEC91D00139
:10045600EC931F5FEBCFEBE4EA93FE013296FA933F
:10046600EA93EF81EF5FEA930E94B00A0E948A083E
:10047600188128960895AA931A931981E1E0EA93C0
:10048600EDB7FEB7FA93EA931F93A1E0C4DF1F917D
:10049600188113C1BA93AA932297EA81EF77E8836A
:1004A600E0E0E983E3E0EA93FE013196FA93EA930A
:1004B600A2E0B1DF9CC222970E94B70C10E020E0B8
:1004C60030E0EBE4EA93EDB7FEB7FA93EA931F93B5
:1004D6000E94730A1F91E03019F4E8E1FCEF23C093
:1004E600EBE4EA930E94B60AE0E0EA93FE0138964E
:1004F600FA93EA93A2E00E948A08E03019F4E8E150
:10050600FCEF11C0EC81E07819F0E9E1FCEF0BC0DB
:10051600EC81F0E0EF77F0709F01ED81E07811F06B
:100526002F5F3F4FF9010E94BE0C269608951A933D
:100536000A9300E010E0EBB3E06CEBBBDC98DD9ACD
:10054600A5E0B0E00E94D90BCE9902C001E010E010
:10055600CF9902C002E010E0DC9ADD98A5E0B0E099
:100566000E94D90BCE9902C003E010E0CF9902C0D9
:1005760004E010E0EBB3E063EBBBF80109911991DD
:100586000895D5DFE0932603F09327030E94BB0A64
:100596003097A9F0AEE1B0E00E94D90BC8DFE09336
:1005A6002803F09329030E94BB0AA0912803B09167
:1005B6002903EA17FB0719F40E94BB0A0895E0E035
:1005C600F0E00895E0910D03F0910E03309739F0B5
:1005D6000024041405041CF4F20131972F01089538
:1005E600E0911103F09112030E94150CF0E0E093E4
:1005F6001103F0931203309711F0AE9A01C0AE9832
:10060600A2E3B0E00E94D90BAE980895BA93AA93DC
:10061600A881B981119729F4AA9AAB98AC9AAD989A
:100626000EC0A881B981AF3FEFEFBE0729F4AA98A3
:10063600AB9AAC98AD9A03C0E5B3E37CE5BB3DC08D
:100646000E94B00CAB81AA231AF4E0E00E94A60C2B
:100656000E94C00A14F00E94CA0AE881F981FBBD13
:10066600EABDC5C10E94B00CAB81AA231AF4E0E032
:100676000E94A60C0E94C00A14F00E94CA0AE881D1
:10068600F981F9BDE8BDB3C1BA93AA93A881B9812E
:10069600119729F4C49AC598C69AC7980EC0A8811E
:1006A600B981AF3FEFEFBE0729F4C498C59AC69843
:1006B600C79A03C0E8B3EF70E8BB229608950E947C
:1006C600D10AE8E8F0E00E94DF0AE1E0F0E05F012D
:1006D600E0910F030E94100CE0930F0345C00E94A7
:1006E600D10AAAE2B3E00E94E60AA0912A03B091D9
:1006F6002B035F97CCF1E0E0E0932A03E0932B0312
:10070600A6ECB2E00E94E60AA091C602B091C7022A
:10071600DC971CF1E0E0E093C602E093C702A8EC88
:10072600B2E00E94E60AA091C802B091C902DC9725
:10073600A4F0E0E0E093C802E093C902AAECB2E0BC
:100746000E94E60AA091CA02B091CB0258972CF0FB
:10075600E0E0E093CA02E093CB0234DFE1E0F0E0B0
:10076600E093CC02F093CD02E991EFBFF991E991C4
:10077600B991A9919991899179916991F990199075
:1007860009901895AA93E881E7B98BE18A95F1F764
:10079600369A349BFECF349AE4B1F5B10C949D069B
:1007A6000E94B70CA0E0EEDF8F01A1E0EBDF9F0116
:1007B6000130E2E01E073CF0E1E0F0E0E0930D03DB
:1007C600F0930E0310C00030E2E01E073CF4EFEF9A
:1007D600FFEFE0930D03F0930E0305C0E0E0E09316
:1007E6000D03E0930E030E94EC0A109729F4E0E053
:1007F600F0E060E070E005C0F801E050F2400E94D1
:10080600060C0E94F10A0E94EC0AAF3FEFEFBE070A
:1008160041F4E0E0F2E0E01BF10B0E94060C0E94BE
:10082600F10AA091D302AA2332F40E94FA0A0E9486
:10083600F50B0E94F10A0E94FA0A0E94030BEFEFE1
:10084600F1E060E070E00E94770C0E940C0BA09132
:10085600D702AA234AF4E0E0E093D402E093D5025B
:10086600E093D602E093D7020E94150B0E941E0B5E
:1008760024F00E94260B0E940C0BF901E050F24076
:100886000E94060CE093D802F093D9026093DA0234
:100896007093DB020E94030BE0E0F2E060E070E0A0
:1008A6000E94770CE093DC02F093DD026093DE0297
:1008B6007093DF02A091DC02B091DD028091DE022E
:1008C6009091DF02E091D402F091D5026091D602B8
:1008D6007091D7020E94EC0B0E942B0BE091DC0278
:1008E600F091DD026091DE027091DF020E94150B2D
:1008F6000E94E70B0E94340BA091E302AA234AF45C
:10090600E0E0E093E002E093E102E093E202E093AC
:10091600E3020E943D0B0E941E0B24F00E94260B50
:100926000E942B0BA091E702AA234AF4E0E0E09391
:10093600E402E093E502E093E602E093E7020E9418
:10094600460B0E941E0B24F00E94260B0E94340BBD
:100956000E94EC0A5BDE0E94EC0A96DEE0910D0333
:10096600F0910E03309729F40E944F0B0E94540B0E
:100976003BC00A2C0B2821F00E94EC0A109709F4C0
:100986001FC00E944F0B0E94540B0E94570BE1E0C0
:10099600E0931003E6E9F0E00E94DF0AA0910F035E
:1009A600A03019F40A2C0B2809F409C0AA24BB2488
:1009B600E0E0E0931003EDEAF0E00E94DF0A15C0E4
:1009C600A0910B03B0910C03A734E0E0BE073CF006
:1009D6000E944F0B0E94540B0E94570B06C00E94A8
:1009E6003D0B2EDE0E94460B3DDE0E94BE0C249679
:1009F6000895E0E3EABBEBBBECEFE7BBECE0E8BB5A
:100A0600ECEFE4BBE0E0E5BBE0E7E1BBE0E0E2BB46
:100A1600E5E0E3BFE0E0E2BFECBFE0EFEFBDE2E11F
:100A2600EEBDE0E0EDBDECBDE3ECE7BDE0E5E6BD27
:100A3600E3ECEBBDE0E5EABDE3ECE9BDE0E5E8BDEE
:100A4600E1E0E9BFEBB7E062EBBFE0E0E5BFE0E481
:100A5600E4BFE0E2EABFE0E0EBB9E8E0EAB9E6E8E5
:100A6600E0BDE0E0E0BDE3E3E9B9E0E0E7B9E3E8F3
:100A7600E6B9E0E0E0BFA0E9B1E00E94610852DC1F
:100A86000E94A70AA0E0F7DCA6E4B0E003DD0E941E
:100A9600B00AB0E079DCA7E6B2E00E94610B0E94E2
:100AA600640BA8E7B2E00E94680BA2E8B2E00E94DD
:100AB600610B0E94640BA1E9B2E00E94680BA1EAF7
:100AC600B2E00E94610B0E94640BA2EBB2E04DDC27
:100AD600ACEDB5E00E94D90B7894A0E053DE3F015F
:100AE600A1E050DE4F01E7DCE0930B03F0930C032B
:100AF600E1E2F1E0FA93EA93F3010E94AB0AF40112
:100B06000E94AB0A0E946F0BF2010E94AB0AE091B1
:100B16000D03F0910E030E94AB0AF5010E94AB0A89
:100B260088E10E9442086A9622972BDDE883F983C2
:100B3600E130A0E0FA07B1F4AEECB2E00E94E60ABA
:100B4600A091CE02B091CF0215972CF0E0E0E09391
:100B5600CE02E093CF02E8E6F1E00E94740B0E9419
:100B66007B0B5CC0E230A0E0FA07D9F4AEECB2E051
:100B7600ED91FD913197FE93EE93E0E0E093E8026C
:100B8600A091CF02AA2332F4E4E0F0E0E093CE0293
:100B9600F093CF02E0E8F1E00E94740B0E947B0B19
:100BA6003DC0E330A0E0FA07C1F4F6010E94150C3F
:100BB600CE2EDD24E0E0E093E8020C2C0D2811F0A7
:100BC600969A01C09698E8E9F1E0FA93EA93F6015D
:100BD6000E94AB0A0E947B0B21C0E430A0E0FA071A
:100BE600E9F40E94800B0E94150CF0E0E0931303D9
:100BF600F0931403E0E0E093E8020E94800B309744
:100C060011F0AE9A01C0AE98E9EBF1E0FA93EA93DF
:100C16000E94800B0E94AB0A0E947B0B2296E091F9
:100C26001003E03011F0AF9A01C0AF98B9DD0E9411
:100C3600EC0AAF3FEFEFBE0709F4D2DCE091CC023D
:100C4600F091CD02309709F46AC0E0E0E093CC025F
:100C5600E093CD02E091E802E03009F0B3DBE091E9
:100C6600CE02F091CF02E130A0E0FA0711F4E1E004
:100C760054C0E230A0E0FA07C1F40E94850BEEEC06
:100C8600F1E0FA93EA93F3010E94AB0A0E948D0BFE
:100C96000E94B00A0E94920B0E948D0B0E94B60A17
:100CA6000E94640B0E94A00B3AC0E330A0E0FA0752
:100CB600B9F40E94850BE5EEF1E0FA93EA930E94FF
:100CC6006F0B0E948D0B0E94B00A0E94920B0E942D
:100CD6008D0B0E94B60A0E94640B0E94A00B1FC0D7
:100CE600E430A0E0FA07C1F40E94850BE0EFF1E0E2
:100CF600FA93EA93F2010E94AB0A0E948D0B0E94BE
:100D0600B00A0E94920B0E948D0B0E94B60A0E94A6
:100D1600640B0E94A00B03C0E0E0E093E802A4E6A7
:100D2600B0E00E94D90BD9CEFFCFAA935D9BFECF30
:100D3600E881ECB921960895BA93AA93AA81F5DFC2
:100D4600A881B9810E94E60AE0C10E947C0AAA81B4
:100D5600BB8112960E948F0C309729F1AA81BB8124
:100D660014960E948F0C8F01309761F00230E0E0FC
:100D76001E0780F0F80131978F01AA81BB81149676
:100D8600ED93FC93AA81BB8112960E94E60A3197E5
:100D9600AC81A083AA81BB810E948F0CFF2312F035
:100DA6000E94E60A06C0AA81BB81EFEFFFEFED9332
:100DB600FC931981088125960895BA93AA932697DC
:100DC6000E94B50C10E0AC85BD85E0E0F0E0ED9347
:100DD600FC93EA89FB893196EA8BFB8B3197E49188
:100DE6002E2FE03009F415C1E12FE03039F4253219
:100DF60011F411E002C00E94A40B0AC1E130A9F46B
:100E0600253219F40E94A40B02C112E040E000E072
:100E16002D3211F401E0FCC02B3211F44BE2F8C084
:100E2600203211F440E2F4C002C0E23039F450E05E
:100E360013E0203311F40068EBC003C0E33009F07F
:100E4600E7C0203310F02A3308F007C0AAE05A9F03
:100E5600502DE22FE0535E0FDBC0E22FE33649F45C
:100E66000E94AB0BE889F989A481AA930E94B10B71
:100E7600CEC0E33741F40E94AB0B0E94B70B0E9431
:100E86005A0A1E2F0AC0E03761F40E94AB0B0E947B
:100E9600B70B0E94660A1E2F086002600F7730E0CB
:100EA60034C0E43611F0E93611F4046002C0E537C7
:100EB60031F4E4E5F0E0EE83FF8315E00CC0E8359D
:100EC60011F4086003C0E83709F0A1C0EEE5F0E0D0
:100ED600EE83FF8314E002FF14C00E94AB0B0E9456
:100EE600C10BAB85AA233AF4EA85FB850E94F10B78
:100EF600EA87FB874DE2403011F01F5F01C00B7F90
:100F060004C00E94AB0B0E94C10B00FD11C0151757
:100F160078F407FF08C002FF04C00B7F242F11508E
:100F260001C020E301C020E20E94A40B5150EFCF84
:100F3600312F01FF17C03030A1F003FF06C0EE814C
:100F4600FF812591EE83FF8305C0AE81BF812D9180
:100F5600AE83BF830E94A40B503009F0515031502C
:100F6600EACF4BC020E3EE81FF810E94930CE88715
:100F7600F987EE81FF813296EE83FF83E885F98556
:100F8600AA85BB85AE17BF0750F02F5FA885B98528
:100F9600EA85FB85EA1BFB0BEA87FB87EFCF2A3343
:100FA60028F003FF02C0295F01C0295D04FD1AC0B5
:100FB600213320F4A885B985119709F409C0531780
:100FC60010F000FF01C013C020E207FF0BC020E3B2
:100FD600006102FF07C00B7F4A930E94B10B50309D
:100FE60009F051500E94A40B503009F05150315075
:100FF600A885B985129708F0B5CF00FF08C0503014
:1010060031F05150E0E2EA930E94B10BF8CF10E0C4
:10101600E0CEAC85BD850E948F0C0E94BC0C649608
:101026000895FF92F82E26970E94B70C0E94C90BCE
:10103600309719F4EFEFFFEF1DC0DE0116960E9400
:10104600E30B8D010E94C90BEE83FF83E0E0E88786
:10105600E987DE011A960E94D00BE8EAF6E0FA93D9
:10106600EA93DE011A96A9DE9F01AE81BF81E0E018
:10107600EC93F9010E94BE0C2A96FF900895FF9208
:10108600F82E26971A930A93DE0114960E94E30B14
:101096008D01E0E0EC83ED83EE83EF83DE011896AD
:1010A6000E94D00BEFE9F6E0FA93EA93DE01189678
:1010B60084DE198108812896FF900895BA93AA9331
:1010C6001A93689421F8E7E0E093C502E0E0E09324
:1010D6003403E0933503E0933603E0933703A99A8C
:1010E600A89AE6BFE1B1EC7FE1B9E981FA81A0EA0D
:1010F600BFE00E943F0C1E2F183008F0185010B9A0
:10110600E6B7E078E564E6BF188123960895AA93CA
:10111600249721FE64C0EA85EE0FE0932C03E88550
:10112600F985E0932D03F0932E03E0E0E093C302EC
:10113600EF81E0932F03ED81FE81E0933003F0937E
:101146003103E0E0E093C402EC81E0933203E6E091
:10115600E093C5027894EF81E03081F0E885F98567
:10116600309709F43CC0EC81E03021F0AD81BE81BE
:10117600109709F001C033C068940DC0EC81E030CF
:1011860041F1ED81FE81309751F1E0912C03E16050
:10119600E0932C03E89420F8E89421F8E6B7EF7082
:1011A600E06AE6BFE0E2F1EA67E070E00E94A10CC7
:1011B60021FC0FC00E94970C3197604070400E943E
:1011C600A10C31F4E5E0E093C502689421F807C06C
:1011D600EFCFA091C502E0E00E940B0C01C0E0E059
:1011E6002B9608950A921A92FA926A937A938A93A0
:1011F6009A93AA93BA93EA93FA93EFB7EA930E9463
:10120600B50C1091C4020091C30230912F032091B6
:10121600C502E12FA0913003B0913103F0E0EA0F4F
:10122600FB1FAF01E1B1E87FE83011F420E002C016
:10123600E03119F4E0912C0310C0E83111F0E832E6
:1012460021F5031780F4E02F0F5FA0912D03B091D5
:101256002E03F0E0AE0FBF1FEC91E3B9E6B7EF70D7
:10126600E068E6BF11C0E09132031E1760F4E0911A
:101276002C03E160E0932C03E89420F8E6B7EF70C6
:10128600E06AE6BFFBC033C0F9C0E03529F4E3B13C
:10129600DA01EC931F5F02C0E03471F4E09132038F
:1012A600E1501E1720F0E6B7EF70E06803C0E6B71E
:1012B600EF70E06CE6BFE2C0E83529F4E3B1DA018D
:1012C600EC931F5F02C0E03209F402C0E03309F478
:1012D60002C0E83469F4203051F420FE03C003173D
:1012E60028F005C0E09132031E1708F424E0C0C0C0
:1012F600E83329F422E0E6B7EF70E068BCC0E836D0
:1013060011F0E83711F422E005C0E03611F0E037BD
:1013160091F420E010E0E89420F8E0913303E03007
:1013260029F421E0E6B7EF70E06803C0E6B7EF7096
:10133600E06CE6BFA3C0E03811F0E03929F520FEE5
:1013460002C021E095C0E3B1DA01EC931F5FE091A2
:1013560033031E17B0F4E0913403F0913503309750
:1013660011F426E085C0A0E0E0913403F091350346
:101376000995E03029F0E6B7EF70E06CE6BF7EC075
:1013860002C0689420F802C0E83809F402C0E839BF
:1013960029F4E6B7EF70E068E6BF70C0E03AA9F45A
:1013A600E6B7EF70E06CE6BF689421F8E09134038D
:1013B600F0913503309739F0A1E0E0913403F091D4
:1013C6003503099501C026E059C0E03B11F422E03F
:1013D60002C0E83AB9F4E0913603F091370330974A
:1013E60059F0A0E0E0913603F091370309953E2FBE
:1013F600E03011F020E002C026E03AC000E0E894B8
:1014060020F802C0E83BE1F420FE02C021E030C033
:10141600E02F0F5FA0912D03B0912E03F0E0AE0FE9
:10142600BF1FEC91E3B9031720F4E6B7EF70E06C49
:1014360005C0689420F8E6B7EF70E068E6BF1EC006
:10144600E03C11F0E83C89F4E6B7EF70E06CE6BFEB
:10145600E0913603F0913703309731F0A1E0E09147
:101466003603F0913703099507C0E03039F423E0DD
:10147600E6B7EF70E06DE6BF689421F81093C402FA
:101486000093C3022093C50230932F030E94BC0C25
:101496002696E991EFBFF991E991B991A9919991B0
:1014A600899179916991F990199009901895BA9353
:1014B600AA93A991B991EE27FF276D91662311F0A2
:1014C6003196FBCF0895BA93AA93AA27BB27E99131
:1014D600F9910590002011F01196FBCFFD010895BA
:1014E600E1E0EA93E0E0F0E0FA93EA93A0E00C94FE
:1014F6008A08BA93AA931A930A930895E07FF07024
:10150600FA93EA93AA81BB810C945E01BA93AA93DB
:10151600E881F981FA93EA930895B0E00E94D90B25
:10152600E0E3F0E0FA93EA93A0E0B0E00C945E0109
:1015360088EC90E00197F1F70895FA93EA93A0E01A
:10154600B0E00E945E01F4CFA1E0B0E00C94890106
:101556000E94060C0E94AB0C0895E0E0F0E0FA93BE
:10156600EA93A0E00895E0E0F0E0FA93EA930895A4
:10157600E0912603F091270308950E949C0CA13464
:10158600ECE9BE07E0E08E07E0E09E070895E0E4A0
:10159600FCE960E070E00E94A10C08950A921A929C
:1015A600FA926A937A938A939A93AA93BA93EA934E
:1015B600FA93EFB7EA930895FA93EA9380E00E94CC
:1015C600420822960895ED91FD913196FE93EE9391
:1015D6000895A0910D03B0910E030895E093D002F3
:1015E600F093D1026093D2027093D3020895E091F2
:1015F600D002F091D1026091D2027091D302089587
:10160600A0E4BCE980E090E00E943A0CDF01CB0147
:101616000895E093D402F093D5026093D6027093B6
:10162600D7020895A091D402B091D5028091D60236
:101636009091D7020895A134ECE9BE07E0E08E0749
:10164600E0E09E070895E0E4FCE960E070E00895BC
:10165600E093E002F093E1026093E2027093E3020A
:101666000895E093E402F093E5026093E602709336
:10167600E7020895A091E002B091E1028091E202B2
:101686009091E3020895A091E402B091E502809161
:10169600E6029091E7020895A0E0B0E080E090E0D5
:1016A60008950E942303F8CF0E943503A0E0B0E01E
:1016B6000E940903A0E0B0E00C9447030E94B80121
:1016C60052CFA1E0B0E00C94C7010E94B801A8EE89
:1016D600B3E00E94D90B38CFE0910B03F0910C03D5
:1016E60037CFFA93EA93E091CE02F091CF0230CF52
:1016F60084E00E944208269627CFE0911303F091DA
:1017060014030895E0E0E093E802E9EEF2E0FA93CC
:10171600EA93089584E00E94140828960895B0E09C
:101726000E94C701A9EEB2E00E94B801EAEFF2E01A
:10173600FA93EA93EAEDF1E0D4CFAAEFB2E00C9483
:10174600B8012A93AD85BE85EF85F8890995089578
:10175600E889F9893497E88BF98B0895AD85BE85BC
:10176600EF85F88909950895A889B98914960E9484
:101776008F0CEE83FF83AE81BF810895A889B98956
:1017860014960E948F0CEA87FB870895DE011C964B
:101796000E94E30B0E948F0C08950E94E30B0E94A7
:1017A6008F0CFA93EA931A930A930895109639F0D8
:1017B600A89580ED97E00197F1F71197C9F708957D
:1017C6000024AF0DB01D0895EA0FFB1F681F791F97
:1017D6000895EA1BFB0B680B790B0895F195E195CB
:1017E600F0400895F09560957095E195FF4F6F4F25
:1017F6007F4F0895EE0FFF1FEE0FFF1FEE0FFF1F27
:10180600EE0FFF1F08956F2F660F660B762F089554
:10181600EA17E1E009F0EE270895EE23E1E009F08A
:10182600EE270895EF2BE1E009F0E0E008957A9FB6
:10183600702D6B9F700DF89F700DE99F700D6A9F5C
:10184600602D710DFB9F600D711DE89F600D711D70
:101856008827FA9FF02D610D781FEB9FF00D611D13
:10186600781FEA9FE02DF10D681F781F089541D07B
:10187600DEDF0EF4B7DF08950024112490E1AA0FED
:10188600BB1F001C111C0E1A1F0A18F40E0E1F1E79
:1018960001C0A1609A9599F7FD01D00108953F9383
:1018A6004F935F93002411244427552730E2AA0F53
:1018B600BB1F881F991F001C111C441F551F0E1AA1
:1018C6001F0A460B570B28F40E0E1F1E461F571FE6
:1018D60001C0A1603A9559F7FD01BC01D001CA01CA
:1018E6005F914F913F91089504D0D9DF0EF47ADFCE
:1018F6000895E89477FF02C075DF689497FF0BC0E0
:101906000024A095B095809590951196801D901D08
:1019160000F8039400FA0895ED91FC91119708954B
:101926000590F491E02D0895E881F9816A817B8123
:101936000895A881B9818A819B810895E883F983F6
:101946006A837B830895E883E983EA83EB830895BA
:101956007A936A93FA93EA9308959A938A93BA9339
:10196600AA9308955A934A933A932A931A930A93F9
:1019760008955D814C813B812A81198108810895F2
:00000001FF
