:100000000C9407010C9400000C9400000C9457030E
:100010000C9400000C9400000C9400000C94000060
:100020000C9400000C9400000C9400000C946703E6
:100030000C9400000C9400000C9400000C94000040
:100040000C9400000C9400000C9400000C94970891
:100050000C9400001027E80364000A00010000105F
:10006000000110000100000064000000000000001A
:1000700000000100253032643A253032643A2530E0
:1000800032640054696D653A2000696E746572725D
:1000900075707420320A0D005B4442475D20427245
:1000A000616B65206170706C6965642E0D0A005B80
:1000B0004442475D204272616B652072656C6561E8
:1000C0007365642E0D0A0073706565643A20202004
:1000D00025640074656D703A2020202564006675E3
:1000E000656C3A2020202564002053797374656D77
:1000F00020496E69742E2E2E0D0A002054637269F9
:10010000743D37304300204D6568727A6164476FF3
:100110006C6162690020415A204469676974616CAE
:10012000322070726A00205342550020313430333F
:100130000053706565643D25642C205374656572B9
:10014000696E673D25642C2054656D703D25642CD7
:10015000204675656C3D25642C2064697265637466
:10016000696F6E466C61673D2564202C2042726188
:100170006B653D25640D0A005B4442475D204B657D
:1001800079310D0A005B4442475D204B6579320DA1
:100190000A005B4442475D204B657933203D3E2099
:1001A000686561646C69676874735F6F6E3D256430
:1001B0000D0A005B4442475D204B657934203D3E8B
:1001C00020686F6E6B0D0A000700010002006600D8
:1001D0000A000400680001000803720007006002C2
:1001E000830012006702E9000B007902FB000F0098
:1001F000840206011100930215010500A4022601E4
:100200000600A9022B010100B102C8010000F89408
:10021000EE27ECBBF1E0FBBFEBBFE5BF8DE0A2E05A
:10022000BB27ED938A95E9F780E098E0A0E6ED938F
:100230000197E9F7EAECF1E085919591009761F07B
:10024000A591B59105901590BF01F00105900D9213
:100250000197E1F7FB01F0CFEFE5EDBFE8E0EEBF7E
:10026000C0E6D2E00C941F05BA93AA931A93E981D1
:100270001E2F1860EFE3EA93EDB7FEB7FA93EA9307
:100280001F930E94150A1F911881239608950E94BA
:100290001E0AEC81FD81E07FF070AA81BB81EA2B10
:1002A000FB2B8F01D801E0DFF801E460DF01DCDF28
:1002B00083E08A95F1F7F801EB7FDF01D5DF85E870
:1002C0008A95F1F71981088128C1BA93AA93EA8126
:1002D000FB810E94230AEA81FB810E947A0B0E9423
:1002E000230A7DC30E942B0AA0E0B0E0EEDFDDC14F
:1002F0000E942B0AA1E0B0E0E8DFD7C1A4E10E9490
:10030000320AA5E00E94320A0E943D0AE0E3F0E0D2
:100310000E94420AE0E2F0E00E94420AA8E2B0E055
:10032000E1DFA8E0B0E0DEDF0E94490AA2E0B0E031
:100330000E94560BA6E0B0E0D5DFACE0B0E0D2DF23
:100340000895BA93AA93A881B981EC91E03039F06D
:10035000ED91A883B983F0E0DF01CADFF4CFA5C136
:100360000E941E0AEA81FB813097A9F0E130A0E0EB
:10037000FA0719F400E410E010C0E230A0E0FA0738
:1003800019F404E110E009C0E330A0E0FA0719F421
:1003900004E510E002C000E010E0EC81FD810E0FEA
:1003A0001F1FF801E068DF019DDF19810881B5C0DA
:1003B000E0EFF2E0FA93EA93E4E7F0E0FA93EA93ED
:1003C000E091B602F091B7020E944D0AE091B402AA
:1003D000F091B5020E944D0AE091B202F091B30291
:1003E0000E944D0A8CE00E94B60760960E94520A55
:1003F000A3E0B0E0B5DFA0E6B2E0A3DFA0EFB2E09B
:10040000A0DF0895AA9323971A93AC81A33010F02C
:10041000E0E026C0EF81E98310E0EC811E1790F444
:10042000E12FF0E03196DE011196EA0FFB1F0F017C
:10043000AD81BE81EE27A10FBE1FEC91D001EC93E0
:100440001F5FEBCFEBE4EA93FE013296FA93EA9357
:10045000EF81EF5FEA930E94520AA0E00E942C080D
:10046000188128960895AA931A931981E1E0EA93D6
:10047000EDB7FEB7FA93EA931F93A1E0C3DF1F9194
:10048000188113C1BA93AA932297EA81EF77E88380
:10049000E0E0E983E3E0EA93FE013196FA93EA9320
:1004A000A2E0B0DF9CC222970E94340C10E020E052
:1004B00030E0EBE4EA93EDB7FEB7FA93EA931F93CB
:1004C0000E94150A1F91E03019F4E8E1FCEF23C007
:1004D000EBE4EA930E94520AE0E0EA93FE013896C8
:1004E000FA93EA93A2E00E942C08E03019F4E8E1C4
:1004F000FCEF11C0EC81E07819F0E9E1FCEF0BC0F2
:10050000EC81F0E0EF77F0709F01ED81E07811F081
:100510002F5F3F4FF9010E943B0C269608951A93D6
:100520000A9300E010E0EBB3E06CEBBBDC98DD9AE3
:10053000A5E0B0E00E94560BCE9902C001E010E0A9
:10054000CF9902C002E010E0DC9ADD98A5E0B0E0AF
:100550000E94560BCE9902C003E010E0CF9902C072
:1005600004E010E0EBB3E063EBBBF80109911991F3
:100570000895D5DFE0930403F09305030E94570A22
:100580003097A9F0AEE1B0E00E94560BC8DFE093CF
:100590000603F09307030E94570AA0910603B09147
:1005A0000703EA17FB0719F40E94570A0895E0E0D1
:1005B000F0E00895E091E802F091E902309739F017
:1005C0000024041405041CF4F20131972F0108954E
:1005D000E091EC02F091ED020E94920BF0E0E093CA
:1005E000EC02F093ED02309711F0AE9A01C0AE9894
:1005F000A2E3B0E00E94560BAE980895BA93AA9376
:10060000A881B981119729F4AA9AAB98AC9AAD98B0
:100610000EC0A881B981AF3FEFEFBE0729F4AA98B9
:10062000AB9AAC98AD9A03C0E5B3E37CE5BB3DC0A3
:100630000E942D0CAB81AA231AF4E0E00E94230C47
:100640000E945C0A14F00E94660AE881F981FBBDF1
:10065000EABDC5C10E942D0CAB81AA231AF4E0E0CB
:100660000E94230C0E945C0A14F00E94660AE88132
:10067000F981F9BDE8BDB3C1BA93AA93A881B98144
:10068000119729F4C49AC598C69AC7980EC0A88134
:10069000B981AF3FEFEFBE0729F4C498C59AC69859
:1006A000C79A03C0E8B3EF70E8BB229608950E9492
:1006B0006D0AEAE8F0E00E947B0AE1E0F0E05F0109
:1006C000E091EA020E948D0BE093EA0245C00E948D
:1006D0006D0AA9E0B3E00E94820AA0910903B091DB
:1006E0000A035F97CCF1E0E0E0930903E0930A038B
:1006F000A2EBB2E00E94820AA091B202B091B302D2
:10070000DC971CF1E0E0E093B202E093B302A4EBCB
:10071000B2E00E94820AA091B402B091B502DC97C7
:10072000A4F0E0E0E093B402E093B502A6EBB2E0FF
:100730000E94820AA091B602B091B70258972CF09D
:10074000E0E0E093B602E093B70234DFE1E0F0E0EE
:10075000E093B802F093B902E991EFBFF991E99102
:10076000B991A9919991899179916991F99019908B
:1007700009901895AA93E881E7B98BE18A95F1F77A
:10078000369A349BFECF349AE4B1F5B10C943F060F
:100790000E94340CA0E0EEDF8F01A1E0EBDF9F01AF
:1007A0000130E2E01E073CF0E1E0F0E0E093E80217
:1007B000F093E90210C00030E2E01E073CF4EFEFD6
:1007C000FFEFE093E802F093E90205C0E0E0E09378
:1007D000E802E093E9020E94880A109729F4E0E019
:1007E000F0E060E070E005C0F801E050F2400E94E7
:1007F000830B0E948D0A0E94880AAF3FEFEFBE076D
:1008000041F4E0E0F2E0E01BF10B0E94830B0E9458
:100810008D0AA091BD02AA2332F40E94960A0E947A
:10082000720B0E948D0A0E94960A0E949F0AEFEFA7
:10083000F1E060E070E00E94F40B0E94A80AA09131
:10084000C102AA234AF4E0E0E093BE02E093BF02B3
:10085000E093C002E093C1020E94B10A0E94BA0A6A
:1008600024F00E94C20A0E94A80AF901E050F24056
:100870000E94830BE093C202F093C3026093C40210
:100880007093C5020E949F0AE0E0F2E060E070E031
:100890000E94F40BE093C602F093C7026093C80273
:1008A0007093C902A091C602B091C7028091C8029C
:1008B0009091C902E091BE02F091BF026091C00226
:1008C0007091C1020E94690B0E94C70AE091C602A2
:1008D000F091C7026091C8027091C9020E94B10AEA
:1008E0000E94640B0E94D00AA091CD02AA234AF470
:1008F000E0E0E093CA02E093CB02E093CC02E09305
:10090000CD020E94D90A0E94BA0A24F00E94C20AAB
:100910000E94C70AA091D102AA234AF4E0E0E09322
:10092000CE02E093CF02E093D002E093D1020E9486
:10093000E20A0E94BA0A24F00E94C20A0E94D00A67
:100940000E94880A5BDE0E94880A96DEE091E80237
:10095000F091E902309729F40E94EB0A0E94F00A14
:100960003BC00A2C0B2821F00E94880A109709F43A
:100970001FC00E94EB0A0E94F00A0E94F30AE1E005
:10098000E093EB02E8E9F0E00E947B0AA091EA0222
:10099000A03019F40A2C0B2809F409C0AA24BB249E
:1009A000E0E0E093EB02EFEAF0E00E947B0A15C082
:1009B000A091E602B091E702A734E0E0BE073CF068
:1009C0000E94EB0A0E94F00A0E94F30A06C00E94ED
:1009D000D90A2EDE0E94E20A3DDE0E943B0C2496DC
:1009E00008950E94FD0AE7ECF0E0FA93EA93F30120
:1009F0000E944D0A0E94020BA0E00E94070BE3ED4B
:100A0000F0E0FA93EA930E940F0B0E94020BA1E020
:100A10000E94070BEEEDF0E0FA93EA93F2010E94D8
:100A20004D0A0E94020BA2E0B0E09ADCA2EDB2E017
:100A300088DCE0910803E03009F0BADC0895E0E3D7
:100A4000EABBEBBBECEFE7BBECE0E8BBECEFE4BBF5
:100A5000E0E0E5BBE0E7E1BBE0E0E2BBE5E0E3BF0F
:100A6000E0E0E2BFECBFE2EAEFBDEAE1EEBDE0E0CC
:100A7000EDBDECBDE7E2E7BDE0E1E6BDE0E0EBBDEA
:100A8000EABDE9BDE8BDE1E0E9BFEBB7E062EBBF7D
:100A9000E0E0E5BFE0E4E4BFE0E2EABFE0E0EBB9BC
:100AA000E8E0EAB9E6E8E0BDE0E0E0BDE3E3E9B9AB
:100AB000E0E0E7B9E3E8E6B9E0E0E0BFA0E9B1E0F3
:100AC0000E9403081BDC0E94490AA0E0CCDCA6E4DB
:100AD000B0E0D8DC0E94520AA0E0B0E041DCA7E61A
:100AE000B2E00E94140BA1E0B0E03ADCA9E7B2E06A
:100AF00028DC0E94490AA4E8B2E00E94140BA1E09D
:100B0000B0E02EDCA3E9B2E00E94140BA2E0B0E05A
:100B100027DCA4EAB2E00E94140BA3E0B0E020DCE2
:100B2000A9EAB2E00EDCACEDB5E00E94560B0E94E3
:100B3000490A7894A0E01EDE3F01A1E01BDE4F01D0
:100B4000B2DCE093E602F093E702E1E3F1E0FA932E
:100B5000EA93F3010E944D0AF4010E944D0A0E949B
:100B60000F0BF2010E944D0AE091E802F091E902B8
:100B70000E944D0AF5010E944D0A88E10E94E40797
:100B80006A962297F6DCE883F983E130A0E0FA0761
:100B900039F4E8E7F1E00E947B0A0E94490A48C064
:100BA000E230A0E0FA0769F4E09108030E948D0B9F
:100BB000E0930803E5E8F1E00E947B0A0E94490AFD
:100BC00037C0E330A0E0FA07A9F4F6010E94920BC7
:100BD000CE2EDD240C2C0D2811F0969A01C096988B
:100BE000E2E9F1E0FA93EA93F6010E944D0A0E94CD
:100BF000170B1EC0E430A0E0FA07D1F40E941C0BD2
:100C00000E94920BF0E0E093EE02F093EF020E945C
:100C10001C0B309711F0AE9A01C0AE98E3EBF1E0F7
:100C2000FA93EA930E941C0B0E944D0A0E94170B34
:100C30002296E091EB02E03011F0AF9A01C0AF983C
:100C4000A7DD0E94880AAF3FEFEFBE0709F4C0DCC2
:100C5000E091B802F091B902309731F0E0E0E09312
:100C6000B802E093B902BDDEA4E6B0E00E94560BE4
:100C700061CFFFCFAA935D9BFECFE881ECB92196AF
:100C80000895BA93AA93AA81F5DFA881B9810E9439
:100C9000820AE0C10E941E0AAA81BB8112960E94AC
:100CA0000C0C309729F1AA81BB8114960E940C0C80
:100CB0008F01309761F00230E0E01E0780F0F8010C
:100CC00031978F01AA81BB811496ED93FC93AA8181
:100CD000BB8112960E94820A3197AC81A083AA81BF
:100CE000BB810E940C0CFF2312F00E94820A06C0F6
:100CF000AA81BB81EFEFFFEFED93FC93198108818F
:100D000025960895BA93AA9326970E94320C10E074
:100D1000AC85BD85E0E0F0E0ED93FC93EA89FB89CA
:100D20003196EA8BFB8B3197E4912E2FE03009F45A
:100D300015C1E12FE03039F4253211F411E002C081
:100D40000E94210B0AC1E130A9F4253219F40E9456
:100D5000210B02C112E040E000E02D3211F401E06D
:100D6000FCC02B3211F44BE2F8C0203211F440E207
:100D7000F4C002C0E23039F450E013E0203311F443
:100D80000068EBC003C0E33009F0E7C0203310F087
:100D90002A3308F007C0AAE05A9F502DE22FE053F3
:100DA0005E0FDBC0E22FE33649F40E94280BE8898E
:100DB000F989A481AA930E942E0BCEC0E33741F497
:100DC0000E94280B0E94340B0E94FC091E2F0AC0AF
:100DD000E03761F40E94280B0E94340B0E94080A3D
:100DE0001E2F086002600F7730E034C0E43611F047
:100DF000E93611F4046002C0E53731F4E4E5F0E0CF
:100E0000EE83FF8315E00CC0E83511F4086003C0E1
:100E1000E83709F0A1C0EEE5F0E0EE83FF8314E0CF
:100E200002FF14C00E94280B0E943E0BAB85AA2330
:100E30003AF4EA85FB850E946E0BEA87FB874DE258
:100E4000403011F01F5F01C00B7F04C00E94280BCF
:100E50000E943E0B00FD11C0151778F407FF08C073
:100E600002FF04C00B7F242F115001C020E301C0FA
:100E700020E20E94210B5150EFCF312F01FF17C00C
:100E80003030A1F003FF06C0EE81FF812591EE8393
:100E9000FF8305C0AE81BF812D91AE83BF830E94C9
:100EA000210B503009F051503150EACF4BC020E3B4
:100EB000EE81FF810E94100CE887F987EE81FF81A7
:100EC0003296EE83FF83E885F985AA85BB85AE1748
:100ED000BF0750F02F5FA885B985EA85FB85EA1B1F
:100EE000FB0BEA87FB87EFCF2A3328F003FF02C012
:100EF000295F01C0295D04FD1AC0213320F4A885B3
:100F0000B985119709F409C0531710F000FF01C00B
:100F100013C020E207FF0BC020E3006102FF07C0FF
:100F20000B7F4A930E942E0B503009F051500E94C3
:100F3000210B503009F051503150A885B9851297D6
:100F400008F0B5CF00FF08C0503031F05150E0E25A
:100F5000EA930E942E0BF8CF10E0E0CEAC85BD8561
:100F60000E940C0C0E94390C64960895FF92F82E92
:100F700026970E94340C0E94460B309719F4EFEF2D
:100F8000FFEF1DC0DE0116960E94600B8D010E94CE
:100F9000460BEE83FF83E0E0E887E987DE011A96DF
:100FA0000E944D0BEAE4F6E0FA93EA93DE011A960A
:100FB000A9DE9F01AE81BF81E0E0EC93F9010E94C0
:100FC0003B0C2A96FF900895FF92F82E26971A93CD
:100FD0000A93DE0114960E94600B8D01E0E0EC8321
:100FE000ED83EE83EF83DE0118960E944D0BE1E462
:100FF000F6E0FA93EA93DE01189684DE19810881FF
:101000002896FF900895BA93AA931A93689421F8AA
:10101000E7E0E093B102E0E0E0931303E093140310
:10102000E0931503E0931603A99AA89AE6BFE1B1ED
:10103000EC7FE1B9E981FA81A0EABFE00E94BC0B34
:101040001E2F183008F0185010B9E6B7E078E564A4
:10105000E6BF188123960895AA93249721FE64C0C1
:10106000EA85EE0FE0930B03E885F985E0930C0326
:10107000F0930D03E0E0E093AF02EF81E0930E0305
:10108000ED81FE81E0930F03F0931003E0E0E09325
:10109000B002EC81E0931103E6E0E093B1027894B2
:1010A000EF81E03081F0E885F985309709F43CC0A4
:1010B000EC81E03021F0AD81BE81109709F001C0D4
:1010C00033C068940DC0EC81E03041F1ED81FE81C8
:1010D000309751F1E0910B03E160E0930B03E8944A
:1010E00020F8E89421F8E6B7EF70E06AE6BFE0E2A6
:1010F000F1EA67E070E00E941E0C21FC0FC00E9424
:10110000140C3197604070400E941E0C31F4E5E0F1
:10111000E093B102689421F807C0EFCFA091B1022B
:10112000E0E00E94880B01C0E0E02B9608950A924F
:101130001A92FA926A937A938A939A93AA93BA9399
:10114000EA93FA93EFB7EA930E94320C1091B0023F
:101150000091AF0230910E032091B102E12FA091D6
:101160000F03B0911003F0E0EA0FFB1FAF01E1B1F4
:10117000E87FE83011F420E002C0E03119F4E0919A
:101180000B0310C0E83111F0E83221F5031780F4A9
:10119000E02F0F5FA0910C03B0910D03F0E0AE0FB4
:1011A000BF1FEC91E3B9E6B7EF70E068E6BF11C08E
:1011B000E09111031E1760F4E0910B03E160E093EE
:1011C0000B03E89420F8E6B7EF70E06AE6BFFBC0D7
:1011D00033C0F9C0E03529F4E3B1DA01EC931F5FC5
:1011E00002C0E03471F4E0911103E1501E1720F0C9
:1011F000E6B7EF70E06803C0E6B7EF70E06CE6BFFB
:10120000E2C0E83529F4E3B1DA01EC931F5F02C0D4
:10121000E03209F402C0E03309F402C0E83469F4B2
:10122000203051F420FE03C0031728F005C0E091E0
:1012300011031E1708F424E0C0C0E83329F422E0AB
:10124000E6B7EF70E068BCC0E83611F0E83711F49B
:1012500022E005C0E03611F0E03791F420E010E024
:10126000E89420F8E0911203E03029F421E0E6B799
:10127000EF70E06803C0E6B7EF70E06CE6BFA3C0B4
:10128000E03811F0E03929F520FE02C021E095C0D8
:10129000E3B1DA01EC931F5FE09112031E17B0F483
:1012A000E0911303F0911403309711F426E085C008
:1012B000A0E0E0911303F09114030995E03029F0C8
:1012C000E6B7EF70E06CE6BF7EC002C0689420F81D
:1012D00002C0E83809F402C0E83929F4E6B7EF7033
:1012E000E068E6BF70C0E03AA9F4E6B7EF70E06CE2
:1012F000E6BF689421F8E0911303F091140330974E
:1013000039F0A1E0E0911303F0911403099501C0B5
:1013100026E059C0E03B11F422E002C0E83AB9F4FB
:10132000E0911503F0911603309759F0A0E0E09199
:101330001503F091160309953E2FE03011F020E0DF
:1013400002C026E03AC000E0E89420F802C0E83B82
:10135000E1F420FE02C021E030C0E02F0F5FA09139
:101360000C03B0910D03F0E0AE0FBF1FEC91E3B999
:10137000031720F4E6B7EF70E06C05C0689420F81E
:10138000E6B7EF70E068E6BF1EC0E03C11F0E83C55
:1013900089F4E6B7EF70E06CE6BFE0911503F091D9
:1013A0001603309731F0A1E0E0911503F091160398
:1013B000099507C0E03039F423E0E6B7EF70E06D3F
:1013C000E6BF689421F81093B0020093AF02209317
:1013D000B10230930E030E94390C2696E991EFBFBB
:1013E000F991E991B991A99199918991799169912D
:1013F000F990199009901895BA93AA93A991B99167
:10140000EE27FF276D91662311F03196FBCF0895EB
:10141000BA93AA93AA27BB27E991F99105900020D6
:1014200011F01196FBCFFD010895E1E0EA93E0E0B1
:10143000F0E0FA93EA93A0E00C942C08BA93AA93F4
:101440001A930A930895E07FF070FA93EA93AA81C1
:10145000BB810C944701BA93AA93E881F981FA936E
:10146000EA930895B0E00E94560BE0E3F0E0FA93AF
:10147000EA93A0E0B0E00C94470188EC90E001977B
:10148000F1F70895FA93EA93A0E0B0E00E944701D3
:10149000F4CFA1E0B0E00C9472010E94830B0E9493
:1014A000280C0895E0E0F0E0FA93EA930895E091C3
:1014B0000403F091050308950E94190CA131E7E29D
:1014C000BE07E0E08E07E0E09E070895E0E1F7E266
:1014D00060E070E00E941E0C08950A921A92FA923F
:1014E0006A937A938A939A93AA93BA93EA93FA9314
:1014F000EFB7EA930895FA93EA9380E00E94E40735
:1015000022960895ED91FD913196FE93EE93089504
:10151000A091E802B091E9020895E093BA02F09335
:10152000BB026093BC027093BD020895E091BA02C1
:10153000F091BB026091BC027091BD020895A0E1E0
:10154000B7E280E090E00E94B70BDF01CB01089585
:10155000E093BE02F093BF026093C0027093C10299
:101560000895A091BE02B091BF028091C0029091F7
:10157000C1020895A131E7E2BE07E0E08E07E0E096
:101580009E070895E0E1F7E260E070E00895E093DF
:10159000CA02F093CB026093CC027093CD020895FF
:1015A000E093CE02F093CF026093D0027093D10209
:1015B0000895A091CA02B091CB028091CC02909183
:1015C000CD020895A091CE02B091CF028091D002B9
:1015D0009091D1020895A0E0B0E080E090E00895FD
:1015E0000E941803F8CF0E942A03A0E0B0E00E94F6
:1015F000FE02A0E0B0E00C943C03E2EDF2E0FA93CE
:10160000EA93089584E00E94B60728964BCFB0E095
:101610000E94B001A2EDB2E00E94A101EECFE091E4
:10162000E602F091E70239CF0E94A1013BCF84E0AE
:101630000E94E40726962DCFE091EE02F091EF0292
:1016400008952A93AD85BE85EF85F889099508959B
:10165000E889F9893497E88BF98B0895AD85BE85C3
:10166000EF85F88909950895A889B98914960E948B
:101670000C0CEE83FF83AE81BF810895A889B989E0
:1016800014960E940C0CEA87FB870895DE011C96D5
:101690000E94600B0E940C0C08950E94600B0E9437
:1016A0000C0CFA93EA931A930A930895109639F062
:1016B000A89580ED97E00197F1F71197C9F7089584
:1016C0000024AF0DB01D0895EA0FFB1F681F791F9E
:1016D0000895EA1BFB0B680B790B0895F195E195D2
:1016E000F0400895F09560957095E195FF4F6F4F2C
:1016F0007F4F0895EE0FFF1FEE0FFF1FEE0FFF1F2E
:10170000EE0FFF1F08956F2F660F660B762F08955B
:10171000EA17E1E009F0EE270895EE23E1E009F091
:10172000EE270895EF2BE1E009F0E0E008957A9FBD
:10173000702D6B9F700DF89F700DE99F700D6A9F63
:10174000602D710DFB9F600D711DE89F600D711D77
:101750008827FA9FF02D610D781FEB9FF00D611D1A
:10176000781FEA9FE02DF10D681F781F089541D082
:10177000DEDF0EF4B7DF08950024112490E1AA0FF4
:10178000BB1F001C111C0E1A1F0A18F40E0E1F1E80
:1017900001C0A1609A9599F7FD01D00108953F938A
:1017A0004F935F93002411244427552730E2AA0F5A
:1017B000BB1F881F991F001C111C441F551F0E1AA8
:1017C0001F0A460B570B28F40E0E1F1E461F571FED
:1017D00001C0A1603A9559F7FD01BC01D001CA01D1
:1017E0005F914F913F91089504D0D9DF0EF47ADFD5
:1017F0000895E89477FF02C075DF689497FF0BC0E7
:101800000024A095B095809590951196801D901D0F
:1018100000F8039400FA0895ED91FC911197089552
:101820000590F491E02D0895E881F9816A817B812A
:101830000895A881B9818A819B810895E883F983FD
:101840006A837B830895E883E983EA83EB830895C1
:101850007A936A93FA93EA9308959A938A93BA9340
:10186000AA9308955A934A933A932A931A930A9300
:1018700008955D814C813B812A81198108810895F9
:00000001FF
